:020000040010EA
:10000000FC7F0020AD181000551810005518100086
:1000100055181000551810005518100055181000EC
:1000200055181000551810005518100055181000DC
:1000300055181000551810005518100055181000CC
:1000400055181000551810005518100055181000BC
:1000500055181000551810005518100055181000AC
:10006000551810005518100055181000551810009C
:10007000551810005518100055181000551810008C
:10008000551810005518100055181000551810007C
:10009000551810005518100055181000551810006C
:1000A000551810005518100055181000551810005C
:1000B000551810005518100055181000551810004C
:1000C000551810005518100055181000551810003C
:1000D000551810005518100055181000551810002C
:1000E000551810005518100055181000551810001C
:1000F000551810005518100055181000551810000C
:1001000055181000551810005518100055181000FB
:1001100055181000551810005518100055181000EB
:1001200055181000551810005518100055181000DB
:1001300055181000551810005518100055181000CB
:1001400055181000551810005518100055181000BB
:1001500055181000551810005518100055181000AB
:10016000551810005518100055181000551810009B
:10017000551810005518100055181000551810008B
:1018AC00FFF7ECFF81B000F011F8FFF7D1FF00F06B
:1018BC009BF900F04BF800F057F9FFF797FFFFF793
:0A18CC00C1FEFFF723FFFCE7FEE773
:1018400081B01CF8019B0BF8019BBBEB0A0FF8D190
:0418500001B070472C
:1017BC0081B04FF000094FF0000CBDEB0A0F04DCB8
:1017CC00BDEB0B0F01DBD446EA464BF8049BBBEB9D
:1017DC000A0FFAD1BCEB0A0F05DDE246D9F800B0CE
:0A17EC000BF1040BF1E701B07047A8
:1017F80081B0CDF800E0002202210020FFF796FE1C
:10180800002202210120FFF791FE0022022102207E
:10181800FFF78CFE074801460020FFF7EBFE05485E
:1018280001460120FFF7E6FEFFF7BCFEDDF800E009
:0818380001B07047501B1000C5
:1015340081B0CDF800E05FFA81F95FFA82FA24E025
:101544005FFA8AF15FFA89F0FFF702FC28E05FFA9C
:101554008AF15FFA89F0FFF7DFFC21E05FFA8AF194
:101564005FFA89F0FFF730FA1AE05FFA8AF15FFA5E
:1015740089F0FFF70BFB13E05FFA8AF15FFA89F059
:10158400FFF7D6FD0CE001200AE00028D8D001289E
:10159400DDD00228E2D00328E7D00428ECD0F2E71B
:0815A400DDF800E001B0704722
:100D540081B0CDF800E0A9E0012905D140F20401F9
:100D64006548FFF70DFC04E040F204016248FFF718
:100D740015FCBBE0012905D140F201015F48FFF7F2
:100D8400FFFB04E040F201015C48FFF707FCADE023
:100D9400012905D140F208015948FFF7F1FB04E0AD
:100DA40040F208015648FFF7F9FB9FE0012905D1FD
:100DB40040F208015348FFF7E3FB04E040F2080166
:100DC4005048FFF7EBFB91E0012905D140F21001F7
:100DD4004D48FFF7D5FB04E040F210014A48FFF705
:100DE400DDFB83E0012905D140F210014748FFF7FC
:100DF400C7FB04E040F210014448FFF7CFFB75E065
:100E0400012905D140F210014148FFF7B9FB04E084
:100E140040F210013E48FFF7C1FB67E0012905D10C
:100E240040F202013648FFF7ABFB04E040F2020156
:100E34003348FFF7B3FB59E0012905D140F204011F
:100E44003148FFF79DFB04E040F204012E48FFF710
:100E5400A5FB4BE0012905D140F220012A48FFF708
:100E64008FFB04E040F220012748FFF797FB3DE0A9
:100E7400012905D140F210012648FFF781FB04E067
:100E840040F210012348FFF789FB2FE0012905D127
:100E940040F220011F48FFF773FB04E040F22001F9
:100EA4001C48FFF77BFB21E0012020E000283FF4F1
:100EB40053AF01283FF45EAF02283FF469AF032823
:100EC4003FF474AF04283FF47FAF05283FF48AAFA2
:100ED40006283FF495AF0728A0D00828ACD00928ED
:100EE400B8D00A28C4D00B28D0D0DDE70020DDF824
:100EF40000E001B0704700BFC010084080110840F6
:100F040000120840A0110840C0110840A010084079
:080F1400601008404010084085
:1005840081B0CDF800E0044AC9B2FFF739FFDDF8C5
:0C05940000E001B0704700BF0004100040
:1004040081B004463C4B9C4203D83C4B9C4200D3F5
:1004140000E06FE03A4B9C4203D33A4B9C4200D23B
:1004240068E0364BE31A03F01F0303B162E0204691
:10043400354B9C4202D304F5A46408E0314B9C4242
:1004440003D304F59C631C4601E004F5A0644FF655
:10045400FF7302EA03031D462C4B02EA03031B0C41
:100464001A4640F20008CFB22946064610462246F4
:10047400B8F1080F3ED201231BB203FA08F31BB2F2
:100484001CB207EA0403A34231D101F440538BB1F7
:100494004FEA8803F5182C686FF4405304EA030309
:1004A4002B604FEA8803F51801F440542B6823436A
:1004B4002B601CE04FEA8803F5182C68134B04EA00
:1004C40003032B604FEA8803F41823680B4323606B
:1004D4004FEA8803D5182C686FF0FF0304EA03037E
:1004E4002B604FEA8803D41823680343236008F180
:1004F4000108BDE701B070476012084000100840D1
:10050400E010084000110840001208400000FFFFFE
:1005A00081B0CDF800E0044AC9B2FFF72BFFDDF8B7
:0C05B00000E001B0704700BF0006200012
:100F1C0081B0CDF800E0A9E0012905D140F2020131
:100F2C006548FFF729FB04E040F202016248FFF735
:100F3C0031FBBBE0012905D140F280015F48FFF78E
:100F4C001BFB04E040F280015C48FFF723FBADE0A3
:100F5C00012905D140F240015948FFF70DFB04E08F
:100F6C0040F240015648FFF715FB9FE0012905D1DF
:100F7C0040F208015348FFF7FFFA04E040F2080181
:100F8C005048FFF707FB91E0012905D140F2100111
:100F9C004D48FFF7F1FA04E040F210014A48FFF720
:100FAC00F9FA83E0012905D140F210014748FFF717
:100FBC00E3FA04E040F210014448FFF7EBFA75E065
:100FCC00012905D140F210014148FFF7D5FA04E0A0
:100FDC0040F210013E48FFF7DDFA67E0012905D128
:100FEC0040F210013B48FFF7C7FA04E040F2100151
:100FFC003848FFF7CFFA59E0012905D140F2040136
:10100C003148FFF7B9FA04E040F204012E48FFF72B
:10101C00C1FA4BE0012905D140F220012A48FFF723
:10102C00ABFA04E040F220012748FFF7B3FA3DE0A9
:10103C00012905D140F220012648FFF79DFA04E072
:10104C0040F220012348FFF7A5FA2FE0012905D132
:10105C0040F240011F48FFF78FFA04E040F24001D4
:10106C001C48FFF797FA21E0012020E000283FF40C
:10107C0053AF01283FF45EAF02283FF469AF032859
:10108C003FF474AF04283FF47FAF05283FF48AAFD8
:10109C0006283FF495AF0728A0D00828ACD0092823
:1010AC00B8D00A28C4D00B28D0D0DDE70020DDF85A
:1010BC0000E001B0704700BFC010084000100840AD
:1010CC0080110840A0110840C0110840A010084031
:0810DC006010084020100840DC
:1009CC0081B0CDF800E0A9E0012905D140F2010188
:1009DC006548FFF7D1FD04E040F201016248FFF7E2
:1009EC00D9FDBBE0012905D140F208015F48FFF7B2
:1009FC00C3FD04E040F208015C48FFF7CBFDADE01D
:100A0C00012905D140F201015948FFF7B5FD04E079
:100A1C0040F201015648FFF7BDFD9FE0012905D1C9
:100A2C0040F208015348FFF7A7FD04E040F208012B
:100A3C005048FFF7AFFD91E0012905D140F21001BC
:100A4C004D48FFF799FD04E040F210014A48FFF7CA
:100A5C00A1FD83E0012905D140F210014448FFF7C4
:100A6C008BFD04E040F210014148FFF793FD75E067
:100A7C00012905D140F240014048FFF77DFD04E01B
:100A8C0040F240013D48FFF785FD67E0012905D1A3
:100A9C0040F208013648FFF76FFD04E040F2080110
:100AAC003348FFF777FD59E0012905D140F20401E5
:100ABC003148FFF761FD04E040F204012E48FFF7D6
:100ACC0069FD4BE0012905D140F220012A48FFF7CE
:100ADC0053FD04E040F220012748FFF75BFD3DE0A9
:100AEC00012905D140F210012448FFF745FD04E02F
:100AFC0040F210012148FFF74DFD2FE0012905D1EF
:100B0C0040F280011E48FFF737FD04E040F28001FF
:100B1C001B48FFF73FFD21E0012020E000283FF4B7
:100B2C0053AF01283FF45EAF02283FF469AF0328AE
:100B3C003FF474AF04283FF47FAF05283FF48AAF2D
:100B4C0006283FF495AF0728A0D00828ACD0092878
:100B5C00B8D00A28C4D00B28D0D0DDE70020DDF8AF
:100B6C0000E001B0704700BFC010084060100840A2
:100B7C00A0100840A0110840C011084060110840A6
:040B8C0020100840ED
:100B900081B0CDF800E0A9E0012905D140F2800143
:100BA0006548FFF7EFFC04E040F280016248FFF780
:100BB000F7FCBBE0012905D140F208015F48FFF7CF
:100BC000E1FC04E040F208015C48FFF7E9FCADE01D
:100BD000012905D140F202015948FFF7D3FC04E096
:100BE00040F202015648FFF7DBFC9FE0012905D1E6
:100BF00040F204015348FFF7C5FC04E040F2040151
:100C00005048FFF7CDFC91E0012905D140F21001D9
:100C10004C48FFF7B7FC04E040F210014948FFF7E9
:100C2000BFFC83E0012905D140F210014348FFF7E2
:100C3000A9FC04E040F210014048FFF7B1FC75E068
:100C4000012905D140F240013F48FFF79BFC04E039
:100C500040F240013C48FFF7A3FC67E0012905D1C1
:100C600040F220013548FFF78DFC04E040F22001FE
:100C70003248FFF795FC59E0012905D140F2040103
:100C80003248FFF77FFC04E040F204012F48FFF7F1
:100C900087FC4BE0012905D140F220012B48FFF7EA
:100CA00071FC04E040F220012848FFF779FC3DE0A8
:100CB000012905D140F204012548FFF763FC04E057
:100CC00040F204012248FFF76BFC2FE0012905D117
:100CD00040F208011E48FFF755FC04E040F208010D
:100CE0001B48FFF75DFC21E0012020E000283FF4D5
:100CF00053AF01283FF45EAF02283FF469AF0328E9
:100D00003FF474AF04283FF47FAF05283FF48AAF67
:100D100006283FF495AF0728A0D00828ACD00928B2
:100D2000B8D00A28C4D00B28D0D0DDE70020DDF8E9
:100D300000E001B0704700BFA0100840C01008409C
:100D4000601008404011084060110840C011084080
:040D50004010084007
:1011340081B0CDF800E0A9E0012905D140F24001D9
:101144006548FFF71DFA04E040F240016248FFF7EA
:1011540025FABBE0012905D140F220015F48FFF7E1
:101164000FFA04E040F220015C48FFF717FAADE003
:10117400012905D140F201015948FFF701FA04E0C1
:1011840040F201015648FFF709FA9FE0012905D111
:1011940040F204015248FFF7F3F904E040F204017D
:1011A4004F48FFF7FBF991E0012905D140F2100106
:1011B4004B48FFF7E5F904E040F210014848FFF717
:1011C400EDF983E0012905D140F210014548FFF70C
:1011D400D7F904E040F210014248FFF7DFF975E067
:1011E400012905D140F208013F48FFF7C9F904E09D
:1011F40040F208013C48FFF7D1F967E0012905D125
:1012040040F208013948FFF7BBF904E040F2080155
:101214003648FFF7C3F959E0012905D140F204012A
:101224003248FFF7ADF904E040F204012F48FFF71C
:10123400B5F94BE0012905D140F220012B48FFF715
:101244009FF904E040F220012848FFF7A7F93DE0A8
:10125400012905D140F204012548FFF791F904E082
:1012640040F204012248FFF799F92FE0012905D142
:1012740040F208011E48FFF783F904E040F2080138
:101284001B48FFF78BF921E0012020E000283FF400
:1012940053AF01283FF45EAF02283FF469AF03283F
:1012A4003FF474AF04283FF47FAF05283FF48AAFBE
:1012B40006283FF495AF0728A0D00828ACD0092809
:1012C400B8D00A28C4D00B28D0D0DDE70020DDF840
:1012D40000E001B0704700BFA010084000110840B2
:1012E40040110840C010084060110840C011084077
:0412F400401008405E
:1015FC0081B0CDF800E015E00846FFF777FE1CE05F
:10160C000846FFF769FD18E00846FFF779FD14E07E
:10161C000846FFF7D1F910E00846FFF785F90CE012
:10162C0001200AE00028E7D00128E9D00228EBD0FD
:10163C000328EDD00428EFD0F2E7DDF800E001B08C
:02164C007047E5
:1012F80081B0CDF800E000F208010B68011D0A6812
:101308000168084691B2DAB2FFF70AF90020DDF861
:0613180000E001B0704787
:1005280081B0CDF800E0064C064B1C60064C074B2A
:100538001C60FFF709FFDDF800E001B0704700BF5D
:100548001505100058000020710510005C000020FF
:1003500082B0CDF800E08346D0B21FFA81FC8DF860
:1003600004002148FFF7CEFF9DF804001F4B1B68D7
:1003700043EA00041D4B1C60BCF1000F06D01C4B6F
:100380001B6843F001041A4B1C6005E0184B1B6806
:1003900003F0FE04164B1C60164BB3FBFBF3184630
:1003A000802B0BD2002809D9104B1B6803F0EF04F7
:1003B0000E4B1C604408104B1C600BE00F4BB3FB52
:1003C000FBF50A4B1B6843F01004084B1C606C08DB
:1003D000094B1C600A4B1B6843F00104084B1C606E
:1003E000DDF800E002B070477C19100094940040E2
:1003F00084940040006CDC029894004080841E00CD
:0404000080940040A4
:1003040081B0CDF800E040F2000A81464FEA8A014C
:1003140009EB01010968B1F1FF3F12D009F1340181
:100324004FEA8A03C91809680A4609EB03010968F8
:1003340008461146FFF7ACFF0AF1010A1FFA8AFAD0
:0A034400E4E7DDF800E001B07047C7
:1002940082B0CDF800E000F0FF02130902F00F0273
:1002A4001446D8B2FFF784FF012212B2A240ADF87F
:1002B400042000460A469DF8041000F0A1F8DDF879
:0602C40000E002B07047EB
:1001B40081B023E0244845E0244843E0244841E05A
:1001C40024483FE024483DE024483BE0244839E00B
:1001D400244837E0244835E0244833E0244831E01B
:1001E40024482FE024482DE024482BE0244829E02B
:1001F400244827E0244825E0244823E00028D9D0D7
:100204000128D9D00228D9D00328D9D00428D9D09C
:100214000528D9D00628D9D00828D9D00928D9D07A
:100224000A28D9D00B28D9D00C28D9D00D28D9D058
:100234000E28D9D01028D9D01128D9D01228D9D035
:100244001328D9D001B0704700100840201008408E
:10025400401008406010084080100840A01008407A
:10026400C010084000110840201108404011084007
:100274006011084080110840A0110840C0110840D6
:100284000012084020120840401208406012084042
:1010E40081B0CDF800E000F208010B68011D0A6828
:1010F4000168084691B2DAB2FFF714FA0020DDF86D
:0611040000E001B070479D
:10110C0081B0CDF800E000F208010B68011D0A68FF
:10111C000168084691B2DAB2FFF700FA0020DDF858
:06112C0000E001B0704775
:0809C40081B0012001B0704771
:0809340081B0012001B0704701
:1015AC0081B046F6FE17C0F2180700BF00BF7F1EC1
:0C15BC00FDD100BF00BF00BF01B07047B0
:1016500081B0CDF800E02A492A48FFF7B5FF002104
:101660000920FFF727FF07210A20FFF723FF0721A3
:101670000B20FFF71FFF01210C20FFF71BFF0220AB
:10168000FFF710FFFFF7F6FEFFF790FF1E491F4818
:10169000FFF79AFF00210920FFF70CFF07210A201E
:1016A000FFF708FF07210B20FFF704FF01210C20A3
:1016B000FFF700FF0220FFF7F5FEFFF7DBFEFFF765
:1016C00075FF13491348FFF77FFF00210920FFF73B
:1016D000F1FE07210A20FFF7EDFE07210B20FFF79F
:1016E000E9FE01210C20FFF7E5FE0220FFF7DAFEFC
:1016F000FFF7C0FEFFF75AFFDDF800E001B07047CA
:10170000641B1000A41A10005C1B1000441A100087
:081710006C1B1000E41910002D
:1015C80081B0CDF800E003460846FFF715F9184644
:1015D800FFF7EAF80120054C2468A0470023044AD5
:1015E8001370DDF800E001B0704700BF4C00002028
:0415F8004900002086
:10093C0082B0CDF800E08DF80400FFF707FE0849FF
:10094C00097801F02001C9B201B9F8E79DF804104B
:10095C0001F0FF0203490A70DDF800E002B07047B5
:08096C00051C0F40001C0F40A8
:1005580081B00448007800F07F010248017001B0C2
:08056800704700BF031C0F40A7
:10090C0081B0034A117860F38201117001B0704715
:04091C0086120840F7
:1009200081B0034A117860F30001117001B0704783
:040930008C120840DD
:10099C0081B0034A117860F3C301117001B0704744
:0409AC00901208405D
:1009B00081B0034A117860F3C301117001B0704730
:0409C0008D1208404C
:1009740081B0034A117860F30411117001B070471B
:040984008E12084087
:1009880081B0034A117860F30411117001B0704707
:04099800851208407C
:1014380081B0034A117860F30411117001B070474C
:0414480083120840C3
:10144C0081B0034A117860F34101117001B070470B
:04145C0090120840A2
:1014600081B0034A117860F38201117001B07047B6
:041470008E12084090
:1013FC0081B0034A117860F34511117001B0704748
:04140C008E120840F4
:1014100081B0034A117860F30411117001B0704774
:0414200082120840EC
:1013E80081B0034A117860F34511117001B070475C
:0413F8008212084015
:1014240081B0034A117860F34101117001B0704733
:0414340086120840D4
:10135C0081B0034A117860F3C711117001B0704766
:04136C0080120840A3
:1013700081B0034A117860F38611117001B0704793
:041380008C12084083
:1013480081B0034A117860F3C301117001B070478E
:041358008D120840AA
:1013200081B0034A117860F30411117001B0704765
:041330008E120840D1
:1013340081B0034A117860F30411117001B0704751
:0413440085120840C6
:1013C00081B0034A117860F30411117001B07047C5
:0413D000831208403C
:1013D40081B0034A117860F30411117001B07047B1
:0413E400811208402A
:1013AC0081B0034A117860F38201117001B070476B
:0413BC008E12084045
:1013840081B0034A117860F34511117001B07047C0
:041394008E1208406D
:1013980081B0034A117860F34511117001B07047AC
:0413A8008112084066
:1006E80081B0034A117860F38611117001B0704728
:0406F8008112084023
:1007100081B0034A117860F30001117001B0704795
:0407200086120840F5
:1007380081B0034A117860F3C301117001B07047AA
:0407480083120840D0
:1006C00081B0034A117860F30001117001B07047E6
:0406D0008512084047
:1006D40081B0034A117860F3C301117001B070470F
:0406E4008D1208402B
:1006AC0081B0034A117860F30411117001B07047E6
:0406BC008E12084052
:1006840081B0034A117860F30411117001B070470E
:040694008512084083
:1006980081B0034A117860F38611117001B0704778
:0406A8008B12084069
:1007240081B0034A117860F3C301117001B07047BE
:0407340085120840E2
:1006FC0081B0034A117860F38201117001B0704728
:04070C008E12084001
:1006700081B0034A117860F34511117001B07047E1
:040680008E1208408E
:1005D00081B0034A117860F30411117001B07047C3
:0405E0008B12084032
:1005BC0081B0034A117860F3C711117001B0704714
:0405CC008112084050
:1005E40081B0034A117860F3C711117001B07047EC
:0405F4008512084024
:1005F80081B0034A117860F3C301117001B07047EC
:04060800861208400E
:1006480081B0034A117860F34101117001B070471D
:0406580083120840C1
:10065C0081B0034A117860F38201117001B07047C8
:04066C008A120840A6
:1006340081B0034A117860F30411117001B070475E
:040644008A120840CE
:10060C0081B0034A117860F30411117001B0704786
:04061C0086120840FA
:1006200081B0034A117860F38611117001B07047F0
:040630008B120840E1
:1008800081B0034A117860F34511117001B07047CF
:040890008612084084
:1008940081B0034A117860F38201117001B070478E
:0408A4008E12084068
:10086C0081B0034A117860F34511117001B07047E3
:04087C008E12084090
:1008440081B0034A117860F38201117001B07047DE
:0408540082120840C4
:1008580081B0034A117860F3C301117001B0704789
:0408680082120840B0
:1008E40081B0034A117860F38611117001B070472A
:0408F4008512084021
:1008F80081B0034A117860F34511117001B0704757
:040908008812084009
:1008D00081B0034A117860F30001117001B07047D4
:0408E0008A12084030
:1008A80081B0034A117860F38201117001B070477A
:0408B8008A12084058
:1008BC0081B0034A117860F30411117001B07047D4
:0408CC008A12084044
:1007880081B0034A117860F30411117001B0704709
:04079800861208407D
:10079C0081B0034A117860F3C301117001B0704746
:0407AC008B12084064
:1007740081B0034A117860F3C301117001B070476E
:040784008E12084089
:10074C0081B0034A117860F38201117001B07047D7
:04075C008E120840B1
:1007600081B0034A117860F34511117001B07047F0
:040770008E1208409D
:10081C0081B0034A117860F38201117001B0704706
:04082C0082120840EC
:1008300081B0034A117860F3C301117001B07047B1
:0408400082120840D8
:1008000081B0026803490A60011D0A6802490A6052
:0C08100001B07047500000205400002090
:1007B00081B000F208010A6801490A6001B070477F
:0407C0004C000020C9
:1014B40083B0CDF800E08DF804008DF8081000200A
:1014C4000A4C2468A04701AA01211046FFF778F9C5
:1014D40002AA01211046FFF773F90120034C246886
:1014E400A047DDF800E003B0704700BF4C000020C7
:1007C40083B0CDF800E08AB2014690B283B2421EF3
:1007D40090B26BB10A78D4B2ADF804000291A0B221
:1007E400054C2468A0470299BDF80400491CEDE7B4
:0C07F400DDF800E003B07047500000206A
:1005700081B0CDF800E0FFF7CDFFDDF800E001B07D
:020580007047C2
:1005140081B0CDF800E0FFF7D7FEDDF800E001B0D0
:0205240070471E
:1002CC0081B00A49096801F004010849096801F084
:1002DC000201074908600549096801F0020101B9EA
:1002EC00F9E70449086801B0704700BF88940040E2
:0802FC008C9400409094004036
:1014A40081B00249087001B0704700BF49000020B4
:1014740082B0CDF800E0012109290AD28DF80410C8
:10148400C8B2002100F014F89DF80410491CC9B238
:0E149400F2E700F089F8DDF800E002B07047E2
:1017180081B0CDF800E01F480078302802D90021B8
:101728001C4801701C491D48FFF74AFF19480178F9
:101738001B484018FFF7DAFE1A491B48FFF740FF1D
:101748001448007800F2080109B215484018FFF75C
:10175800CDFE16491648FFF733FF0E48007800F211
:10176800100109B20E484018FFF7C0FE0949087871
:10177800401C087046F6FE17C0F2180700BF00BFED
:101788007F1EFDD100BF00BF00BFDDF800E001B043
:10179800704700BF00000020641B1000A41A10004E
:1017A800010000205C1B1000441A10006C1B100084
:0417B800E419100020
:1014F40083B0CDF800E008230022082A13D2811813
:1015040001908DF808308DF809200978D8B2FFF7DA
:10151400CFFF9DF809209DF8083001985B1EDBB2CF
:0E152400521CD2B2E9E7DDF800E003B07047D8
:1018D80081B0CDF800E0174A174B1848006840F06F
:1018E800020116480160012A06D0042A04D0102AF1
:1018F80002D0302A00D002E01148026002E0012143
:101908000F48016003F0020078B10E480360FFF74A
:1019180049FE0D480178C1F3000000B9F9E70B480A
:10192800006800F4807000B9F9E7DDF800E001B064
:10193800704700BF010000000000000008E000E060
:101948002001084008A4004000A4004030010840DD
:1019580081B004490448016004490548016001B0A8
:10196800704700BF80BB000060000020000000003E
:0419780064000020E7
:0818540081B0FEE701B070470E
:10185C0081B04EF68850CEF20000016841F4700160
:10186C00016000BF00BF00BF00BFF1EE100A40F4E2
:0A187C004000E1EE100A01B07047D1
:1018880081B0DFF81000DFF810100860D0F800D041
:1018980000F004B80000100008ED00E000BF01B03F
:0218A800704787
:101B740000B5DFF814B0DFF814A0DFF814C0FFF7E5
:101B84005DFE00BD704700BF00000020490000203A
:041B9400041B10001E
:101BF40000B5DFF810B0DFF810A0FFF7DDFD00BD81
:0C1C0400704700BF0000002068000020B6
:10197C00D3000000E400000054000000FFFFFFFF54
:10198C00000000000000000000000000000000004B
:10199C00000000000000000000000000000000003B
:1019AC0000000000001000000010000000100000FB
:1019BC00000000000000000000000000000000001B
:1019CC00000000000000000000000000000000000B
:0819DC00000000000000000003
:1019E4001107100039071000C1061000D5061000B9
:1019F400AD0610008506100099061000250710009A
:101A0400FD06100071061000D1051000BD05100080
:101A1400FFFFFFFFFFFFFFFFFFFFFFFFFFFFFFFFD2
:101A2400FFFFFFFFFFFFFFFFFFFFFFFFFFFFFFFFC2
:101A3400FFFFFFFFFFFFFFFFFFFFFFFFFFFFFFFFB2
:101A4400251410005D1310007113100049131000C9
:101A54002113100035131000C1131000D51310000A
:101A6400AD1310008513100099131000E90610003F
:101A7400FFFFFFFFFFFFFFFFFFFFFFFFFFFFFFFF72
:101A8400FFFFFFFFFFFFFFFFFFFFFFFFFFFFFFFF62
:101A9400FFFFFFFFFFFFFFFFFFFFFFFFFFFFFFFF52
:101AA4000D091000210910009D091000B109100052
:101AB4007509100089091000391410004D14100024
:101AC40061141000FD13100011141000E91310002C
:101AD400FFFFFFFFFFFFFFFFFFFFFFFFFFFFFFFF12
:101AE400FFFFFFFFFFFFFFFFFFFFFFFFFFFFFFFF02
:101AF400FFFFFFFFFFFFFFFFFFFFFFFFFFFFFFFFF2
:101B040000000000000000000000000000000000D1
:101B1400000000000000000000081C3622081C36EB
:101B240022081C3622081C3622081C3622081C36C1
:101B3400220000000000000000000000000000007F
:091B440000000000000000000098
:0C1B500040420F000000000000000000F8
:081B5C007105100015051000D1
:081B64007105100015051000C9
:081B6C007105100015051000C1
:00000001FF
