:10000000FCFF0220E9170000A1170000A117000063
:10001000A1170000A1170000A1170000A117000000
:10002000A1170000A1170000A1170000A1170000F0
:10003000A1170000A1170000A1170000A1170000E0
:10004000A1170000A1170000A1170000A1170000D0
:10005000A1170000A1170000A1170000A1170000C0
:10006000A1170000A1170000A1170000A1170000B0
:10007000A1170000A1170000A1170000A1170000A0
:10008000A1170000A1170000A1170000A117000090
:10009000A1170000A1170000A1170000A117000080
:1000A000A1170000A1170000A1170000A117000070
:1000B000A1170000A1170000A1170000A117000060
:1000C000A1170000A1170000A1170000A117000050
:1000D000A1170000A1170000A1170000A117000040
:1000E000A1170000A1170000A1170000A117000030
:1000F000A1170000A1170000A1170000A117000020
:10010000A1170000A1170000A1170000A11700000F
:10011000A1170000A1170000A1170000A1170000FF
:10012000A1170000A1170000A1170000A1170000EF
:10013000A1170000A1170000A1170000A1170000DF
:10014000A1170000A1170000A1170000A1170000CF
:10015000A1170000A1170000A1170000A1170000BF
:10016000A1170000A1170000A1170000A1170000AF
:10017000A1170000A1170000A1170000A11700009F
:10018000A1170000A1170000A1170000A11700008F
:08019000A1170000A1170000F7
:1017E80000F010F8FFF7DCFF00F04EFDFFF7EEFF0A
:1017F80000F00AFDFFF74CFFFFF7A8FFFFF75EFFB9
:04180800FCE7FEE714
:1016840081B01CF8019B0BF8019BBBEB0A0FF8D14E
:0416940001B07047EA
:1016480081B04FF000094FF0000CBDEB0A0F04DC2D
:10165800BDEB0B0F01DBD446EA464BF8049BBBEB12
:101668000A0FFAD1BCEB0A0F05DDE246D9F800B043
:0A1678000BF1040BF1E701B070471D
:1016980081B0CDF800E0002202210020FFF742FFD0
:1016A800054801460020FFF7ADFFFFF765FFDDF8AD
:0C16B80000E001B0704700BF08220000F5
:10152C0081B0CDF800E05FFA81F85FFA82F916E03D
:10153C005FFA89F15FFA88F0FFF7BAFD16E05FFAFF
:10154C0089F15FFA88F0FFF7CFFC0FE05FFA89F1C1
:10155C005FFA88F0FFF7E4FB08E0012006E00028C2
:10156C00E6D00128EBD00228F0D0F6E7DDF800E059
:04157C0001B0704703
:1010BC0081B0CDF800E0A9E0012905D14FF0040181
:1010CC006548FFF7C9FC04E04FF004016348FFF7E3
:1010DC00EBFCBBE0012905D14FF400615E48FFF742
:1010EC00BBFC04E04FF400615C48FFF7DDFCADE0B5
:1010FC00012905D14FF010015948FFF7ADFC04E070
:10110C004FF010015748FFF7CFFC9FE0012905D1A4
:10111C004FF020015248FFF79FFC04E04FF02001F4
:10112C005048FFF7C1FC91E0012905D14FF0800137
:10113C004B48FFF791FC04E04FF080014948FFF762
:10114C00B3FC83E0012905D14FF040014448FFF77F
:10115C0083FC04E04FF040014248FFF7A5FC75E02A
:10116C00012905D14FF480613F48FFF775FC04E07D
:10117C004FF480613D48FFF797FC67E0012905D1EA
:10118C004FF400513448FFF767FC04E04FF4005172
:10119C003248FFF789FC59E0012905D14FF00401D1
:1011AC003348FFF759FC04E04FF004013148FFF7D6
:1011BC007BFC4BE0012905D14FF008012C48FFF7CF
:1011CC004BFC04E04FF008012A48FFF76DFC3DE0B2
:1011DC00012905D14FF480712548FFF73DFC04E04F
:1011EC004FF480712348FFF75FFC2FE0012905D1F4
:1011FC004FF400711E48FFF72FFC04E04FF4007110
:10120C001C48FFF751FC21E0012020E000283FF4AE
:10121C0053AF01283FF45EAF02283FF469AF0328B7
:10122C003FF474AF04283FF47FAF05283FF48AAF36
:10123C0006283FF495AF0728A0D00828ACD0092881
:10124C00B8D00A28C4D00B28D0D0DDE70020DDF8B8
:10125C0000E001B0704700BF50F00F4040F00F406D
:10126C0090F00F4080F00F4010F00F4000F00F4056
:08127C00D0F00F40C0F00F405C
:100A640081B0CDF800E0034AFFF790FFDDF800E025
:080A740001B07047040102000B
:1009900081B0CDF800E0FFF7E1FEDDF800E001B046
:0209A00070479E
:10075C0083B0CDF800E006460C4615463046FFF750
:10076C0097FE40F2FF1306EA03008009002622469A
:10077C002946202E39D24FF0010303FA06F402EA7F
:10078C0004031F46A3422ED104031A4B1C19B300B9
:10079C00E51801952C68184B04EA03032B60174BE2
:1007AC0001EA0304019B1B6843EA0404019B1C60DF
:1007BC0001F48033B3F5803F15D08401104B1B1925
:1007CC001433029301F400333BB1FC43029B1B68CE
:1007DC0003EA0404029B1C6005E0029B1B6843EACD
:1007EC000704029B1C60761CC3E7DDF800E003B035
:1007FC00704700BF009004400000FFFFFFFF0000A7
:04080C0000F00F40A9
:10049C0081B040F2FF1100EA01018909084600F21F
:1004AC0009024FF0010101FA02F20449096841EA1C
:1004BC00020202490A6001B0704700BF3880044054
:100AB40081B0CDF800E0034AFFF768FFDDF800E0FD
:080AC40001B0704704010400B9
:100EF40081B0CDF800E0A9E0012905D14FF0080147
:100F04006548FFF7ADFD04E04FF008016348FFF7C3
:100F1400CFFDBBE0012905D14FF400215E48FFF766
:100F24009FFD04E04FF400215C48FFF7C1FDADE0F4
:100F3400012905D14FF008015948FFF791FD04E05C
:100F44004FF008015748FFF7B3FD9FE0012905D191
:100F54004FF020015248FFF783FD04E04FF02001D9
:100F64005048FFF7A5FD91E0012905D14FF080011C
:100F74004B48FFF775FD04E04FF080014948FFF747
:100F840097FD83E0012905D14FF040014448FFF764
:100F940067FD04E04FF040014248FFF789FD75E02A
:100FA400012905D14FF400613F48FFF759FD04E0E2
:100FB4004FF400613D48FFF77BFD67E0012905D14F
:100FC4004FF480713448FFF74BFD04E04FF4807117
:100FD4003248FFF76DFD59E0012905D14FF4803106
:100FE4002F48FFF73DFD04E04FF480312D48FFF713
:100FF4005FFD4BE0012905D14FF400312848FFF78C
:101004002FFD04E04FF400312648FFF751FD3DE089
:10101400012905D14FF480712548FFF721FD04E033
:101024004FF480712348FFF743FD2FE0012905D1D8
:101034004FF400711E48FFF713FD04E04FF40071F4
:101044001C48FFF735FD21E0012020E000283FF493
:1010540053AF01283FF45EAF02283FF469AF032881
:101064003FF474AF04283FF47FAF05283FF48AAF00
:1010740006283FF495AF0728A0D00828ACD009284B
:10108400B8D00A28C4D00B28D0D0DDE70020DDF882
:1010940000E001B0704700BF50F00F4040F00F4037
:1010A40090F00F4080F00F4010F00F4000F00F4020
:0810B400D0F00F40C0F00F4026
:100D2C0081B0CDF800E0A9E0012905D14FF04001D8
:100D3C006548FFF791FE04E04FF040016348FFF770
:100D4C00B3FEBBE0012905D14FF480615E48FFF78B
:100D5C0083FE04E04FF480615C48FFF7A5FEADE034
:100D6C00012905D14FF004015948FFF775FE04E045
:100D7C004FF004015748FFF797FE9FE0012905D17A
:100D8C004FF020015248FFF767FE04E04FF02001BE
:100D9C005048FFF789FE91E0012905D14FF0800101
:100DAC004B48FFF759FE04E04FF080014948FFF72C
:100DBC007BFE83E0012905D14FF040014448FFF749
:100DCC004BFE04E04FF040014248FFF76DFE75E02A
:100DDC00012905D14FF010013F48FFF73DFE04E01B
:100DEC004FF010013D48FFF75FFE67E0012905D188
:100DFC004FF080013448FFF72FFE04E04FF08001E4
:100E0C003248FFF751FE59E0012905D14FF48031EA
:100E1C002F48FFF721FE04E04FF480312D48FFF7F7
:100E2C0043FE4BE0012905D14FF400312848FFF770
:100E3C0013FE04E04FF400312648FFF735FE3DE089
:100E4C00012905D14FF480712548FFF705FE04E018
:100E5C004FF480712348FFF727FE2FE0012905D1BD
:100E6C004FF400711E48FFF7F7FD04E04FF40071DA
:100E7C001C48FFF719FE21E0012020E000283FF478
:100E8C0053AF01283FF45EAF02283FF469AF03284B
:100E9C003FF474AF04283FF47FAF05283FF48AAFCA
:100EAC0006283FF495AF0728A0D00828ACD0092815
:100EBC00B8D00A28C4D00B28D0D0DDE70020DDF84C
:100ECC0000E001B0704700BF50F00F4040F00F4001
:100EDC0090F00F4080F00F4010F00F4000F00F40EA
:080EEC00D0F00F40C0F00F40F0
:10160C0081B0CDF800E00DE00846FFF759FE10E080
:10161C000846FFF743FE0CE00846FFF72DFE08E0F6
:10162C00012006E00028EFD00128F1D00228F3D0E9
:0A163C00F6E7DDF800E001B07047AA
:1012CC0081B0CDF800E0011D0A680168084611469E
:1012DC00034AFFF703FC0020DDF800E001B0704783
:0412EC00C820000016
:100AE80081B0CDF800E003460C4615460648FFF7EE
:100AF8009BFE224619462B460348FFF7CBFEDDF83E
:0C0B080000E001B0704700BF00C00240D8
:1008300081B00F49884206D10E4A0F490A600F4A1B
:100840000F490A6012E00F49884206D10E4A0A4950
:100850000A600E4A0A490A6008E00D49884205D13B
:100860000C4A05490A600C4A05490A6001B0704704
:1008700000C00240290A00003000FF1FFFFFFFFFF9
:100880003400FF1F00D00240090A0000FFFFFFFFF5
:0C08900000C00A40D1090000FFFFFFFF7C
:10089C0084B0CDF800E0039101461046019002911E
:1008AC001846FFF70BFF0299019800F01004240979
:1008BC002346019002910846FFF726FF0299029108
:1008CC000846FFF729FE0299019800F000450C68D4
:1008DC002C430C6000F080450C682C430C600C68B9
:1008EC0044F440540C600D686FF4804405EA040431
:1008FC000C6001F20C059C002E1900F00F053468F9
:10090C002C43346001F20C059C002E1900F080651C
:10091C0034682C43346001F20C059C002E1900F055
:10092C00007534682C43346001F20C059C002E19C0
:10093C0000F0807534682C43346001F20C059C0087
:10094C002E1935686FF0F04405EA0404346001F2A6
:10095C000C059C002E1900F00F04E50634682C439E
:10096C0034600191039A0846D9B2FFF709FE019948
:10097C000D686FF0010405EA04040C60DDF800E07A
:04098C0004B07047FC
:1006C80081B0CDF800E040F2000C83464FEA8C017F
:1006D8000BEB01010968B1F1FF3F12D00BF13401B6
:1006E8004FEA8C03C91809680A460BEB030109682D
:1006F80008461146FFF7E6FE0CF1010C1FFA8CFCC8
:0A070800E4E7DDF800E001B07047FF
:1004CC0082B0CDF800E080464FEA581202F00702E5
:1004DC00914608F01F04A24693010D4AD3184FF021
:1004EC000102A240019218460A46019900F04AFA0C
:1004FC004FEA0933074AD3184FEA8A029C1808F4CA
:10050C00E06322681A432260DDF800E002B0704715
:08051C0000F00F4000900440C4
:1007140081B00B49884203D1012252B209490A60CF
:100724000949884203D1012252B208490A600849A2
:10073400884203D1012252B206490A6001B07047CF
:1007440000C00240B007904200D00240B40790427B
:0807540000C00A40300690428B
:1005240081B002686FF4804102EA01010160016850
:1005340041F00101016000F22C021149116000F246
:1005440008020021116000F20C024FF0F04111602A
:1005540000F210024FF0F041116000F2300200216D
:10056400116000F2340200211160016841F440611D
:1005740001600268034942EA0101016001B0704769
:0805840000000A9A014000008A
:10058C0091B0CDF800E00F9010468DF840100E9011
:10059C0001AB1846FFF73CFF4FF0FF330D930023E0
:1005AC0006930023089301230A9300230B93002343
:1005BC000593059B042B41D20D9B002B3ED00023B1
:1005CC000793079B102B35D20D9B002B32D00123A8
:1005DC000993099B032B29D20D9B3BB3099C029BCE
:1005EC0003FB04F6059B9C00314B1B191D68079BF4
:1005FC009C00304B1B191B686B43B6FBF3F4204675
:10060C000E9BA3420ED30E9B1C1A0C940D9BA34263
:10061C0008D90C9B0D93059B0693079B08930B9095
:10062C00099B0A93099B5B1C0993D2E7079B5B1CF4
:10063C000793C6E7059B5B1C0593BAE70F9B03F278
:10064C000C049DF840309B00E5182C681A4B04EA0A
:10065C0003032B600F9B03F20C049DF840309B00AE
:10066C00E5180A9B5B1EDC072B6823432B600F9B52
:10067C0003F20C049DF840309B00E518069B1B040C
:10068C0003F440342B6823432B600F9B03F20C04C0
:10069C009DF840309B00E518089B03F00F042B6875
:1006AC0023432B600B98DDF800E011B0704700BFBE
:0C06BC00F021000094210000F0FFFC7F02
:10041C0081B0CDF800E00446FFF7F4FF40F2E8317C
:10042C0000FB01F3194909680A0F1849096801F022
:10043C007061090EC8B21549096801F47001090D03
:10044C00CDB21249096801F47021090CCEB2D1B2B7
:10045C00491C09B259430F462360221D411C09B2A5
:10046C00B7FBF1F1116004F20802691C09B2B7FB89
:10047C00F1F1116004F20C02711C09B2B7FBF1F13D
:10048C001160DDF800E001B0704700BF448004400B
:0C04100001480068704700BF2C00FF1F6F
:1012A80081B0CDF800E0011D0A68016808461146C2
:1012B800034AFFF715FC0020DDF800E001B0704795
:0412C800C82000003A
:1012840081B0CDF800E0011D0A68016808461146E6
:10129400034AFFF727FC0020DDF800E001B07047A7
:0412A400C82000005E
:1015800040F6FE07C0F23D0700BF00BF7F1EFDD141
:0815900000BF00BF00BF70475F
:1017540081B0CDF800E00F490F48FFF71BFF0021CF
:101764000920FFF731FF07210A20FFF72DFF07218A
:101774000B20FFF729FF01210C20FFF725FF022092
:10178400FFF702FEFFF78CFEFFF7F8FEDDF800E03E
:0C17940001B0704700220000342100006A
:1015980081B0CDF800E003460846FFF71DFB18466A
:1015A800FFF712FB0120054C2468A0470023044ADA
:1015B8001370DDF800E001B0704700BF1C00FF1F8A
:0415C8002800FF1FD9
:0C0CFC0001490860704700BF0808FE4373
:0C0CF00001490860704700BF2C08FE435B
:0C0CE40001490860704700BF1010FE437B
:0C0D200001490860704700BF1410FE433A
:0C0D140001490860704700BF1C10FE433E
:0C0D080001490860704700BF1810FE434E
:0C12F00001490860704700BF2800FE4361
:0C13440001490860704700BF3408FE43F8
:0C135C0001490860704700BF0818FE43FC
:0C13500001490860704700BF0C18FE4304
:0C13800001490860704700BF2018FE43C0
:0C13740001490860704700BF2418FE43C8
:0C13680001490860704700BF0C08FE43FC
:0C13380001490860704700BF4C08FE43EC
:0C132C0001490860704700BF0C10FE4330
:0C13200001490860704700BF1410FE4334
:0C12FC0001490860704700BF1C10FE4351
:0C13080001490860704700BF1810FE4348
:0C13140001490860704700BF2C00FE4338
:0C0BA00001490860704700BF2008FE43B8
:0C0B940001490860704700BF4010FE439C
:0C0BAC0001490860704700BF4410FE4380
:0C0BC40001490860704700BF2018FE4384
:0C0BB80001490860704700BF2418FE438C
:0C0B880001490860704700BF1808FE43D8
:0C0B580001490860704700BF2808FE43F8
:0C0B4C0001490860704700BF0810FE431C
:0C0B640001490860704700BF1410FE43F8
:0C0B7C0001490860704700BF1C10FE43D8
:0C0B700001490860704700BF1810FE43E8
:0C0CB40001490860704700BF1000FE43BB
:0C0CA80001490860704700BF1C08FE43B3
:0C0CC00001490860704700BF4010FE436F
:0C0CD80001490860704700BF4410FE4353
:0C0CCC0001490860704700BF2018FE437B
:0C0C9C0001490860704700BF2418FE43A7
:100BE000026803490A60011D0A6802490A607047E9
:080BF0002000FF1F2400FF1F7D
:100BD00000F208010A6801490A6070471C00FF1F03
:1015CC0083B0CDF800E08DF804008DF808100020F1
:1015DC000A4C2468A04701AA01211046FFF706FB1C
:1015EC0002AA01211046FFF701FB0120034C2468DD
:1015FC00A047DDF800E003B0704700BF1C00FF1FE0
:100BF80083B0CDF800E08AB2014690B283B2421EBB
:100C080090B26BB10A78D4B2ADF804000291A0B2E8
:100C1800054C2468A0470299BDF80400491CEDE77B
:0C0C2800DDF800E003B070472000FF1F63
:100A280081B0CDF800E082B24FF080610348FFF753
:100A3800B5FFDDF800E001B0704700BF00C002401C
:1009A40081B000F22C044FF00043236000F23404C1
:1009B40093B241EA0303236000F22C031C68C4F3DE
:0A09C400C07303B9F8E701B07047F3
:100A080081B0CDF800E082B24FF080610348FFF773
:100A1800C5FFDDF800E001B0704700BF00D002401C
:1009D00081B0CDF800E082B24FF080610348FFF7AC
:1009E000E1FFDDF800E001B0704700BF00C00A4041
:100ACC0081B0CDF800E081B20348FFF79BFEDDF862
:0C0ADC0000E001B0704700BF00A0064021
:1008100081B0ADF800100146BDF800000A1D137844
:10082000C3F3C01202B9F9E7CA1D107001B07047D6
:100B300081B0CDF800E081B20348FFF769FEDDF82F
:0C0B400000E001B0704700BF00B00640AC
:100B140081B0CDF800E081B20348FFF777FEDDF83D
:0C0B240000E001B0704700BF00C00640B8
:100A480081B0CDF800E081B20348FFF7DDFEDDF8A4
:0C0A580000E001B0704700BF00D0064075
:100A980081B0CDF800E081B20348FFF7B5FEDDF87C
:0C0AA80000E001B0704700BF00A00E404D
:100A7C0081B0CDF800E081B20348FFF7C3FEDDF88A
:0C0A8C0000E001B0704700BF00B00E4059
:0C138C0001490870704700BF2800FF1FD7
:1014A40082B0CDF800E0012109290AD28DF8041098
:1014B400C8B2002100F088F89DF80410491CC9B294
:0E14C400F2E700F05BF8DDF800E002B07047E0
:1016C40081B0CDF800E01E480078FFF701FF45F631
:1016D400FE17C0F2622700BF00BF7F1EFDD100BF0E
:1016E40000BF00BF1748FFF755FE45F6FE17C0F2CE
:1016F400622700BF00BF7F1EFDD100BF00BF00BF37
:101704001148FFF7ADFE42F6FE47C0F2311700BFA5
:1017140000BF7F1EFDD100BF00BF00BF0B48FFF715
:101724009FFE45F6FE17C0F2622700BF00BF7F1E72
:10173400FDD100BF00BF00BFDDF800E001B070477D
:101744000000FF1F0100FF1F0C00FF1F1400FF1FFC
:1014D40082B0CDF800E00824A0F22001C8B20223B3
:1014E4000A2B1AD20A2101FB00F20E498918C918E5
:1014F4008DF804408DF805008DF806300978E0B2C7
:1015040000F062F89DF806309DF805009DF804404F
:10151400641EE4B25B1CDBB2E2E7DDF800E002B07B
:08152400704700BF381D0000F4
:10139800ADF2082DCDF800E00027002640F208083D
:1013A800002305462846FFF741FC83421BD2E91873
:1013B80009782039C8B200245FFA83F90A2C0ED2C2
:1013C80002A9CB190A2101FB00F22349891809193E
:1013D800097819707F1CFFB2641CE4B2EEE709F1CA
:1013E8000101CBB2DEE75FFA88F4F2B2F8B2A0F2FC
:1013F800080109B28A422ADAD3B202F2080109B214
:101408008B421ADA02A9C9188DF804008DF8052054
:101418008DF806408DF807300978E0B200F0D2F870
:101428009DF807309DF806409DF805209DF80400BA
:10143800641EE4B25B1CDBB2DFE70824521CD2B2A4
:101448008DF80400FFF7FCFB9DF80400CFE7DDF8FA
:0C14580000E00DF2082D7047381D000068
:100C3400014608460A46017809B1401CFBE7811ABF
:040C4400C8B270477B
:100C480081B0CDF800E011E000F096FC00F094FCD3
:100C580019E000F091FC16E0FFF7C6FEFFF7C4FEAE
:100C6800FFF7C2FE0FE000F087FC0CE008480078B0
:100C78000128E9D0064800780228EAD0044800781C
:100C88000328E9D0EFE7DDF800E001B0704700BFC6
:040C98002800FF1F12
:1009F00041F67E27C0F2060700BF00BF7F1EFDD173
:080A000000BF00BF00BF7047FA
:1014640083B0CDF800E008230022082A13D28118A3
:1014740001908DF808308DF809200978D8B200F071
:10148400A3F89DF809209DF8083001985B1EDBB293
:0E149400521CD2B2E9E7DDF800E003B0704769
:10180C0090B072B697480190974802909748039011
:10181C0097480490974805909748069097480790EA
:10182C00974808909748099097480A9097480B90CA
:10183C0097480C90974998480D9098480E900D98A1
:10184C0000F007000F9001F0010050B94CF220504D
:10185C00934908804DF62810088040F2D211914827
:10186C0001809148007800F0010050B18F48007859
:10187C0000F0080020B18D49087840F0080008708D
:10188C0021E08B48006840F000518948016089488C
:10189C00006800F48070B0B9864801686FF470502D
:1018AC0001EA000040F44071824801608148006800
:1018BC0040F480717F4801607E4801686FF40070CD
:1018CC0001407C480160AA217B4801700D9800F012
:1018DC00100060B9794801786FF0600001407748DA
:1018EC00017077480078012800D0FAE71CE00D98C9
:1018FC0000F01000C0B10E997248814208D96021E5
:10190C006E4801706E480078802800D0FAE70BE032
:10191C006A4801786FF060000140684801706848BF
:10192C000078012800D0FAE70499674801606748FD
:10193C0001686FF440200140029800F440200143FC
:10194C0062480160624801686FF4403001400398BE
:10195C0000F4403001435E4801600F9830B10F989D
:10196C00012803D00F98022800D061E0019800F004
:10197C00800050B9089800F0400028B10B9800F096
:10198C000300002800D100E015E05248006840F444
:10199C0000715048016050480168504801404E4861
:1019AC000160069800F0040028B14D4801684B48CE
:1019BC0001404B4801600A994A48017005994A4810
:1019CC000170059800F0040038B14848007800F028
:1019DC001000002800D1F8E705E04448007800F03A
:1019EC00100000B1F9E74248007800F0BF01C9B21D
:1019FC00069800F0FD0001433D480170079800F087
:101A0C00E0013C48007800F01F00014339480170A8
:101A1C000199394801700B99384801700F980228C8
:101A2C0005D13348007840F0020131480170B8E02C
:101A3C00019800F0800020B90B9800F0030000B171
:101A4C0065E02448006840F4007122480160224897
:101A5C0001682248014020480160069800F004000B
:101A6C0000F04EB80000000000000C000000010067
:101A7C0000001401220000002400000000000000FF
:101A8C000200000046000000000000000000000002
:101A9C00000000000000000007000000C0D401009E
:101AAC000E2005400020054000F0074002D0074002
:101ABC003C80044010D0034000E0074001E00740A8
:101ACC0003E007408038010044800440007004406B
:101ADC00048004403880044048900440FFF8FFFE26
:101AEC004C9004400840064000400640064006402A
:101AFC000140064003400640005006400C400640A2
:101B0C0028B17A4801687A480140784801600A99FE
:101B1C00784801707848007800F0BF01C9B2069887
:101B2C0000F0FD0001437448017001997348017085
:101B3C000B99734801700F98072805D1059840F050
:101B4C0080017048017002E005996E48017006989A
:101B5C0000F0040048B10B9800F0030028B96A4863
:101B6C00007800F0020000B9F9E7059800F00400D5
:101B7C0038B16548007800F01000002800D1F8E773
:101B8C0005E06148007800F0100000B1F9E7079813
:101B9C0000F0E0015D48007800F01F0001435B4855
:101BAC000170089800F0BF0159480170099800F0C5
:101BBC00BF0158480170089800F0400028B1544803
:101BCC00007840F04001524801700F98052806D16A
:101BDC004948007840F00201474801701BE00F981B
:101BEC00062803D00F98072800D014E04948007845
:101BFC0040F04001474801704348007800F0400035
:101C0C0000B9F9E70F98072805D13E48007800F095
:101C1C003F013C4801700F9818B10F98032800D071
:101C2C002CE03948007800F00C0000B1F9E73A4894
:101C3C00006840F00101384801604FF0000137485E
:101C4C0001604FF08001364801604FF005013548C6
:101C5C0001604FF00101324801603148006800F02A
:101C6C00800000B9F9E700212D4801602A4801687D
:101C7C006FF001000140284801602AE00F9801280C
:101C8C0003D00F98022800D007E01F48007800F01E
:101C9C000C00042800D0F8E71BE00F98042806D0AD
:101CAC000F98062803D00F98052800D007E0164897
:101CBC00007800F00C00082800D0F8E709E00F9835
:101CCC00072806D11048007800F00C000C2800D032
:101CDC00F8E7154801686FF00F0001400C9800F010
:101CEC000F0001431048016010B070474C90044045
:101CFC00FFF8FFFE08400640014006400050064039
:101D0C000C4006400040064006400640034006409A
:101D1C00044006400540064038800440080004405A
:0C1D2C0000000440040004404880044013
:1017D40081B002490248016001B07047C0D40100E1
:0417E4002C00FF1FB7
:0817A00081B0FEE701B07047C3
:1017A80081B072B60849086840F47000086000BF4C
:1017B80000BF00BF00BFF1EE100A40F44000E1EEA8
:0C17C800100A62B601B0704788ED00E026
:1022100000B5DFF814B0DFF814A0DFF814C0FFF742
:1022200031FA00BD704700BF0000FF1F1C00FF1FF8
:04223000D4210000B5
:1022900000B5DFF810B0DFF810A0FFF7D5F900BDEA
:0C22A000704700BF0000FF1F3800FF1F48
:100400000000000000000000FFFFFFFF02FDFFFFF3
:101D3800000000000000000000000000000060FA41
:101D4800FA600000000000C0E00000E0C0000000F1
:101D580028FEFE28FEFE280000000000000000000B
:101D68000000000062660C183066460000000C5E39
:101D7800F2BAEC5E12000000000020E0C000000093
:101D880000000000387CC68200000000000082C607
:101D98007C380000000010547C38387C5410000057
:101DA8000010107C7C1010000000000000181C00BF
:101DB80000000000001010101010100000000000BB
:101DC8000006060000000000060C183060C0800005
:101DD80000007CFE8A92A2FE7C000000000242FE07
:101DE800FE020200000042C68E9A92F666000000CB
:101DF80022634949497F36000000183868CAFEFE48
:101E08000A00000000F4F69292929E8C00003C7E3C
:101E1800D292921E0C0000000000809EB0E0C0002C
:101E280000006CFE929292FE6C00000060F29292AA
:101E380096FC7800000000000066660000000000C4
:101E48000000006C6E0000000000000010386CC636
:101E5800820000000024242424242400000000829E
:101E6800C66C38100000000040C0809ABAE04000FC
:101E780000007CFE82BAAAF8780000003E7ED0906E
:101E8800D07E3E00000082FEFE9292FE6C000000B2
:101E9800387CC68282C64400000082FEFE82C67C70
:101EA8003800000082FEFE92BA82C600000082FE60
:101EB800FE92B880C0000000387CC6828ACE4E00F0
:101EC8000000FEFE101010FEFE000000000082FE62
:101ED800FE8200000000000E0282FEFC800000006E
:101EE80082FEFE1038EEC600000082FEFE82020668
:101EF8000E000000FEFE703870FEFE000000FEFEC0
:101F0800603018FEFE0000007CFE828282FE7C00AB
:101F1800000082FEFE9290F0600000007CFE82824B
:101F280087FF7D00000082FEFE9098FE660000009C
:101F380044E6B2929ACE4400000000E0C2FEFEC21F
:101F4800E0000000FCFE020202FEFC000000F8FCBB
:101F5800060206FCF8000000FCFE061C06FEFC005B
:101F68000000C6EE381038EEC600000000E0F21E91
:101F78001EF2E0000000E2C68E92B2E6CE0000003B
:101F88000000FEFE82820000000080C06030180C55
:101F98000600000000008282FEFE000000001030F3
:101FA80060C0603010000000010101010101010161
:101FB8000000000080C0602000000000042E2A2AD3
:101FC8003C1E0200000082FEFC22223E1C00000093
:101FD8001C3E22222236140000001C3E22A2FCFED7
:101FE800020000001C3E2A2A2A3A18000000127E2D
:101FF800FE9290C040000000193D25253F3E20007C
:10200800000082FEFE30203E1E000000000022BEBE
:10201800BE02000000000006070101BFBE0000006C
:1020280082FEFE081C3622000000000082FEFE022E
:10203800000000003E3E301E303E1E000000203EE4
:102048001E20203E1E0000001C3E2222223E1C00B4
:102058000000213F1F25243C18000000183C2425BF
:102068001F3F21000000223E1E32203010000000D9
:10207800123A2A2A2A2E240000002020FCFE2226BA
:10208800040000003C3E02023C3E02000000383CD6
:102098000603063C380000003C3E061C063E3C0099
:1020A800000022361C081C3622000000393E0505B7
:0E20B800053F3E0000000032262E3A32260080
:1020C800450200004702000046020000FFFFFFFF34
:1020D80000000000000000000000000000000000F8
:1020E80000000000000000000000000000000000E8
:1020F80000000000000008000000080000000800C0
:10210800FFFFFFFF000000000000000000000000CB
:1021180000000000000000000000000000000000B7
:0C212800000000000000000000000000AB
:10213400FD0C0000F10C0000E50C0000210D000076
:10214400150D0000090D0000F112000045130000F8
:102154005D1300005113000081130000751300008B
:10216400FFFFFFFFFFFFFFFFFFFFFFFFFFFFFFFF7B
:10217400FFFFFFFFFFFFFFFFFFFFFFFFFFFFFFFF6B
:10218400FFFFFFFFFFFFFFFFFFFFFFFFFFFFFFFF5B
:102194000200000004000000060000000800000027
:1021A400100000002000000040000000800000003B
:1021B400000100000002000000040000000800000C
:1021C400001000000020000000400000008000001B
:0C21D40059202D4D696B726F452D2000C5
:0821E000081C3622081C3622FF
:0821E800F7E3C9DDF7E3C9DDEF
:1021F00002000000030000000500000007000000CE
:08220000290A0000FFFFFFFFA7
:0822080040420F0007000080B6
:00000001FF
